:020000040801F1
:10000000C8E200203D2D01088DF902088FF9020891
:100010009FF90208A3F90208A7F9020800000000EE
:10002000000000000000000000000000ABF9020822
:10003000ADF9020800000000BB580108AFF9020842
:10004000572D0108572D0108572D0108BD770108CC
:10005000572D0108572D0108572D0108572D01086C
:10006000572D0108572D0108572D0108572D01085C
:10007000D985010879850108A58101084181010818
:10008000C76E010819700108572D0108572D010886
:10009000572D0108572D0108572D0108572D01082C
:1000A000572D0108572D0108572D0108572D01081C
:1000B000572D0108CD7B0108572D01089B700108C1
:1000C00073720108572D0108572D0108572D01089B
:1000D000572D010801820108097E010827860108C1
:1000E000572D0108572D0108572D0108572D0108DC
:1000F000572D0108572D0108572D0108572D0108CC
:10010000572D0108572D0108572D0108572D0108BB
:1001100009E801083D7C0108572D0108572D010809
:10012000572D0108572D01083BE6010883E6010819
:10013000DFF80CD01FF0EEFC00480047D1F80208B1
:10014000C8E2002031490143314A1160704770B55F
:10015000002100230F22C47804B32D4C246804F43A
:10016000E064C4F5E064210AC1F10403CA404478A4
:1001700004FA03F18478144021430901254C0678E0
:10018000A155047804F01F050124AC4005786D11D9
:10019000AD0005F1E025C5F8004109E0047804F060
:1001A0001F050124AC401C4D0678761145F8264009
:1001B00070BD1A4A0A400243154B1B1F1A60704754
:1001C00039B1134A121D12680243114B1B1D1A60EC
:1001D00006E00F4A121D126882430D4B1B1D1A6068
:1001E0007047042808D14FF0E021096941F004016B
:1001F0004FF0E022116107E04FF0E021096921F0A2
:1002000004014FF0E0221161704700000000FA0580
:100210000CED00E000E400E080E100E080FFFF1F63
:1002200001460020FE4A106800F0380008431060C4
:100230007047FB49096821F00801F94A116011462D
:100240000968014311607047F549096821F0100100
:10025000F34A116011460968014311607047F14883
:10026000EF494860F04848607047EE48EC49486004
:10027000ED4848607047EA48006940F08000E8496E
:1002800008617047E648006940F08000E449086171
:1002900070470420E249C96801F0010109B1012059
:1002A0000EE0DF49C96801F0040109B1022007E04E
:1002B000DB49C96801F0100109B1032000E0042006
:1002C000704700B502460423FFF7E3FF034603E04F
:1002D000FFF7DFFF0346521E012B01D1002AF7D1A1
:1002E00002B90523184600BD30B5044604254FF475
:1002F0003020FFF7E6FF0546042D17D1C8480069F6
:1003000040F00200C649086108464461006940F0B7
:10031000400008614FF43020FFF7D3FF0546C04886
:10032000006941F6FD710840BD490861284630BDAD
:1003300010B504244FF43020FFF7C3FF0446042C0B
:1003400016D1B748006940F00400B5490861084675
:10035000006940F0400008614FF43020FFF7B1FF22
:100360000446AF48006941F6FB710840AC4908619A
:10037000204610BD00B502460423FFF78AFF03465E
:1003800003E0FFF786FF0346521E012B01D1002A2E
:10039000F7D102B90523184600BD10B504244FF467
:1003A0003020FFF7E7FF0446042C16D19C48006973
:1003B00040F004009A4908610846006940F0400096
:1003C00008614FF43020FFF7D5FF044694480069D8
:1003D00041F6FB71084092490861204610BD00209B
:1003E0008F49C96901F0020109B1012000E0002034
:1003F000704730B5A5250424FFF7F1FF00B10025B3
:100400004FF43020FFF75DFF0446042C3AD18548B5
:1004100083498860844888600846006940F020006D
:1004200008610846006940F0400008614FF4302040
:10043000FFF747FF0446042C1BD17948006941F6B9
:10044000DF710840764908610846006940F01000F5
:10045000086176480580E002FFF733FF0446052C6B
:1004600010D06F48006941F6EF7108406C4908618F
:1004700008E0052C06D06A48006941F6EF71084093
:1004800067490861204630BD78B506460C4604250C
:1004900000200090E802FFF714FF0546042D24D148
:1004A0005F48006940F001005D4908613480E8025E
:1004B000FFF707FF0546042D10D1B01C0090200C5B
:1004C00000990880E802FFF7FCFE054654480069E1
:1004D00041F6FE7108405249086106E05048006943
:1004E00041F6FE7108404E490861284678BD70B556
:1004F00004460D460426F002FFF7E3FE0646042EEE
:1005000011D14748006940F0010045490861258044
:10051000F002FFF7D6FE06464148006941F6FE713B
:1005200008403F490861304670BD70B505460E462B
:100530000424E002FFF7C5FE0446042C17D1394815
:1005400037498860384888600846006940F01000E4
:1005500008612E80E002FFF7B4FE0446052C06D0A9
:100560002F48006941F6EF7108402D490861204687
:1005700070BD2DE9F04304464FF6FF763746B0468E
:10058000B1460425E443E6B2C4F30727C4F30748A1
:100590004FEA1469E802FFF794FE0546042D49D19D
:1005A00020481F498860204888600846006940F05C
:1005B00010000861FF2E06D01C4808300680E802B3
:1005C000FFF77FFE0546042D08D1FF2F06D0174800
:1005D0000A300780E802FFF774FE0546042D0AD1B1
:1005E000B8F1FF0F07D011480C30A0F80080E802E6
:1005F000FFF767FE0546042D0AD1B9F1FF0F07D0BA
:100600000A480E30A0F80090E802FFF75AFE0546AF
:10061000052D0FD00248006941F6EF71084007E050
:100620000020024023016745AB89EFCD00F8FF1F92
:10063000664908612846BDE8F08330B505460424C4
:100640004FF43020FFF73DFE0446042C41D16048B2
:100650005E4988605F4888600846006940F0200075
:1006600008610846006940F0400008614FF43020FE
:10067000FFF727FE0446042C22D15448006941F6B6
:10068000DF710840514908610846006940F01000D8
:1006900008611DB100205049088002E0A5204E49A4
:1006A00008804FF43020FFF70CFE0446052C10D0D4
:1006B0004648006941F6EF7108404449086108E086
:1006C000052C06D04148006941F6DF7108403F49DA
:1006D0000861204630BDF0B505460E461746042495
:1006E0003B483A4988603B488860E002FFF7E9FDF3
:1006F0000446042C19D13548006940F010003349F4
:10070000086147F0F800304328433349891C0880CA
:10071000E002FFF7D6FD0446052C06D02B48006901
:1007200041F6EF710840294908612046F0BD27488D
:10073000C069800870472548006A70470020234937
:10074000096801F0200109B1012000E00020704794
:1007500029B11E4A126902431C4B1A6104E01B4A6C
:1007600012698243194B1A61704701460020012922
:1007700008D1164AD26902F001020AB1012008E04C
:10078000002006E0114AD2680A400AB1012000E0C8
:10079000002070470D49C860704704200B49C968A4
:1007A00001F0010109B101200EE00849C96801F01A
:1007B000040109B1022007E00449C96801F01001F1
:1007C00009B1032000E0042070470000002002402F
:1007D00023016745AB89EFCD00F8FF1F10B5044634
:1007E000CC48844208D10121042000F02DFB0021D7
:1007F000042000F029FB46E0C748844208D10121CB
:10080000082000F021FB0021082000F01DFB3AE049
:10081000C248844208D10121102000F015FB0021BC
:10082000102000F011FB2EE0BD48844208D10121C8
:10083000202000F009FB0021202000F005FB22E031
:10084000B848844208D10121402000F0FDFA00217F
:10085000402000F0F9FA16E0B348844208D10121A3
:10086000802000F0F1FA0021802000F0EDFA0AE08B
:10087000AE48844207D10121801500F0E5FA00213D
:10088000A01500F0E1FA10BD10B50121084600F0F6
:10089000DBFA0021012000F0D7FA10BD2DE9F0416C
:1008A000024600250026002000230024002791F89E
:1008B00003C00CF00F0591F803C00CF0100CBCF154
:1008C000000F03D091F802C04CEA050591F800C072
:1008D000BCF1000F31D0146800202BE04FF0010C68
:1008E0000CFA00F3B1F800C00CEA03069E4220D1D6
:1008F00083004FF00F0C0CFA03F7BC4305FA03FC1E
:100900004CEA040491F803C0BCF1280F06D14FF063
:10091000010C0CFA00FCC2F814C00AE091F803C004
:10092000BCF1480F05D14FF0010C0CFA00FCC2F8E5
:1009300010C0401C0828D1D31460B1F800C0BCF12D
:10094000FF0F34DD546800202EE000F1080C4FF05A
:10095000010808FA0CF3B1F800C00CEA03069E4245
:1009600021D183004FF00F0C0CFA03F7BC4305FABA
:1009700003FC4CEA040491F803C0BCF1280F05D134
:1009800000F1080C08FA0CF8C2F8148091F803C0C2
:10099000BCF1480F07D100F1080C4FF0010808FA2C
:1009A0000CF8C2F81080401C0828CED35460BDE873
:1009B000F0814FF6FF710180022181700421C17026
:1009C00070470246002093680B400BB1012000E005
:1009D000002070470146886880B2704702460020B8
:1009E000D3680B400BB1012000E0002070470146A6
:1009F000C86880B2704701617047416170470AB1B1
:100A0000016100E041617047C16070474FF480327E
:100A10000A4382618161826182698269704702460C
:100A20000020434B18684FF68073184040EA0210CC
:100A300008433F4B186070473E49C8617047F0B5A6
:100A40000A46002300240021002500F00046B6F1EC
:100A5000004F02D1364EF16901E0354E7168C0F3A6
:100A6000034583B200F44016B6F5401F08D121F0CB
:100A700070612F4E766826F070662D4F7E6012E012
:100A800000F48016B6F5801F06D1032606FA05F499
:100A9000A14341F0706106E0460D360103FA06F607
:100AA000B14341F0706122B1460D360103FA06F6FA
:100AB000314300F00046B6F1004F02D11C4EF16107
:100AC00001E01B4E7160F0BD30B500228B071C0F9A
:100AD0000F2303FA04F2164B08338C1053F824301A
:100AE0009343134C08348D1044F8253023468C1062
:100AF00053F824308C07240F00FA04F423430C4CE1
:100B000008348D1044F8253030BD0A49DC310860C6
:100B10007047000000080140000C01400010014037
:100B20000014014000180140001C01400020014059
:100B30000000014000002042DF48006840F0010052
:100B4000DD49086008464068DC490840DA494860E9
:100B500008460068DA490840D74908600846006836
:100B600020F4802008600846406820F4FE004860B9
:100B70004FF41F0088607047CF49096821F4803125
:100B8000CD4A11601146096821F480211160B0F549
:100B9000803F03D0B0F5802F0ED106E0C64909682A
:100BA00041F48031C44A116007E0C349096841F447
:100BB000A021C14A116000E000BF00BF704710B51E
:100BC00001460022002300204A11012A02D1BA4C1A
:100BD000236806E0022A02D1B74C236A01E0B64C32
:100BE000636A01F01F02012494401C400CB10120F3
:100BF00000E0002010BD38B5002000900024002542
:100C000000BF3120FFF7DBFF05460098401C009035
:100C10000098B0F5A06F01D0002DF2D03120FFF781
:100C2000CEFF08B1012400E00024204638BD014673
:100C30000020A14A106820F0F80040EAC1001060CE
:100C40007047A04908607047024600209A4B5868D8
:100C500020F47C1042EA01031843974B5860704718
:100C600098490866704701460020934A506820F072
:100C700003000843506070478F48406800F00C0044
:100C80007047014600208C4A506820F0F00008436D
:100C90005060704701460020874A506820F4E060A9
:100CA00008435060704701460020834A506820F492
:100CB000605040EAC1005060704729B17E4A527AC4
:100CC00002437D4B5A7204E07B4A527A82437A4B4C
:100CD0005A7270477B49D83108607047014600203E
:100CE000754A506820F44040084350607047002126
:100CF000714A20321170704A82F82010012802D007
:100D000004280AD104E001216B4A2032117005E069
:100D10000521694A2032117000E000BF00BF704712
:100D20006949086070476449096A0143624A11626F
:100D30007047654944390860704730B5002100228A
:100D4000002400235C4D6D6805F00C0121B10429DD
:100D500005D0082923D105E05C4D056022E05B4DFC
:100D600005601FE0544D6D6805F47012524D6D68BA
:100D700005F48034022505EB92421CB9544D5543CD
:100D800005600BE04C4D6D6805F400351DB1504D0C
:100D90005543056002E04D4D5543056002E04B4D63
:100DA000056000BF00BF444D6D6805F0F001090902
:100DB000484D6B5C0568DD4045603F4D6D6805F44E
:100DC000E061090A434D6B5C4568DD4085603A4D42
:100DD0006D6805F46051C90A3E4D6B5C4568DD40A5
:100DE000C560354D6D6805F44041890B3A4D6B5C2B
:100DF000C568B5FBF3F5056130BD29B12E4A5269CE
:100E000002432D4B5A6104E02B4A526982432A4B1C
:100E10005A61704729B1284A92690243264B9A6168
:100E200004E0254A92698243234B9A61704729B1B5
:100E3000214AD2690243204BDA6104E01E4AD2699A
:100E400082431D4BDA61704729B11B4AD2680243C5
:100E5000194BDA6004E0184AD2688243164BDA6014
:100E6000704729B1144A12690243134B1A6104E016
:100E7000114A12698243104B1A6170471249403976
:100E8000086070470F49C86470470B49C8717047C4
:100E90000948406A40F0807007494862704701463F
:100EA0000020054A92680A400AB1012000E00020B3
:100EB0007047014988727047001002400000FFF837
:100EC000FFFFF6FE000042428004424200127A0018
:100ED00000093D00000000201000002010B504466D
:100EE000FB48844209D101218803FFF7ADFF0021AF
:100EF0004FF48040FFF7A8FF32E0F648844209D162
:100F000001214804FFF7ADFF00214FF40030FFF747
:100F1000A8FF25E0F048844209D101218804FFF7A9
:100F2000A0FF00214FF48020FFF79BFF18E0EB4863
:100F3000844209D10121C804FFF793FF00214FF437
:100F40000020FFF78EFF0BE0E548844208D1012125
:100F50000805FFF786FF00214FF48010FFF781FF9F
:100F600010BD2DE9F04786B005460E460024A24686
:100F700000BFA1460027B08900B100BF2F462C8AD0
:100F80004CF6FF700440F08804432C82AC894EF686
:100F9000F3100440B0883189084371890843044341
:100FA000AC81AC8A4FF6FF400440B0890443AC8268
:100FB00001A8FFF7C2FEC648874202D1DDF810A0A3
:100FC00001E0DDF80CA0A88900F4004040B10AEB74
:100FD000CA0000EB0A1031684900B0FBF1F807E0E5
:100FE0000AEBCA0000EB0A1031688900B0FBF1F887
:100FF0006420B8FBF0F004012009642101FB108992
:10100000A88900F4004040B1322000EBC900B0FBD9
:10101000F1F000F00700044308E0322000EB091073
:101020006421B0FBF1F000F00F0004432C8106B006
:10103000BDE8F0874FF41651016000218180C18026
:1010400001810C21418100218181704710B5024648
:101050000020108A4FF2FF0318400B884C8823436E
:101060008C882343CC8823431843108210BD002171
:10107000018041808180C180704721B1828942F422
:101080000052828104E082894DF6FF731A4082810A
:101090007047F0B50346002400260025002040F6E6
:1010A0006A17B94200D100BF1846C1F3421401F0DB
:1010B0001F06012707FA06F5012C01D10C3004E0C8
:1010C000022C01D1103000E014301AB107682F4310
:1010D000076002E00768AF430760F0BD1AB1838A7A
:1010E0000B43838202E0838A8B4383827047028AA8
:1010F0004FF6F0731A400282028A0A430282704756
:1011000082894FF2FF731A40828182890A43828169
:10111000704721B1828942F00202828104E0828913
:101120004FF6FD731A4082817047028A4FF6DF73D3
:101130001A400282028A0A430282704721B1028A5F
:1011400042F48042028204E0028A4BF6FF731A40A6
:1011500002827047C1F30802828070470146888886
:10116000C0F308007047818941F001018181704717
:10117000028BD2B20283028B42EA012202837047C1
:10118000028B02F47F420283028B0A430283704780
:1011900021B1828A42F02002828204E0828A4FF6E4
:1011A000DF731A408282704721B1828A42F01002B6
:1011B000828204E0828A4FF6EF731A40828270477F
:1011C00021B1828A42F00802828204E0828A4FF6CC
:1011D000F7731A408282704721B1828942F400423B
:1011E000828103E08289C2F30E028281704721B1BD
:1011F000828A42F40062828204E0828A4FF2FF73A4
:101200001A4082827047828A4FF6FB731A408282AC
:10121000828A0A438282704721B1828A42F00202A6
:10122000828204E0828A4FF6FD731A408282704700
:1012300002460020B1F5007F00D100BF13880B40AB
:101240000BB1012000E00020704701F40072B2F5FC
:10125000007F00D100BFCA430280704770B50246CC
:10126000002400230025002040F66A16B14200D178
:1012700000BFC1F3421501F01F03012606FA03F374
:10128000012D02D19689334006E0022D02D1168A43
:10129000334001E0968A33400C12012606FA04F42A
:1012A0001688344013B10CB1012000E0002070BD5D
:1012B00010B50022002340F66A14A14200D100BFFD
:1012C0000A1201249440A3B2DC43048010BD000044
:1012D000003801400044004000480040004C0040FD
:1012E0000050004001684FF6FE721140016000217D
:1012F000016041608160C1608D49884208D18C499C
:101300000839496841F00F01894A083A51608AE07A
:1013100087491431884208D185490839496841F024
:10132000F001834A083A51607DE0814928318842C2
:1013300008D17F490839496841F470617C4A083A0C
:10134000516070E07A493C31884208D178490839C7
:10135000496841F47041764A083A516063E0744943
:101360005031884208D172490839496841F47021E6
:101370006F4A083A516056E06D496431884208D19D
:101380006B490839496841F47001694A083A51606B
:1013900049E067497831884208D165490839496888
:1013A00041F07061624A083A51603CE0614988420C
:1013B00006D1011F096841F00F01021F116032E0E0
:1013C0005C491431884208D15A49091F096841F023
:1013D000F001584A121F116025E056492831884211
:1013E00008D15449091F096841F47061514A121F1C
:1013F000116018E04F493C31884208D14D49091F1E
:10140000096841F470414B4A121F11600BE04949D1
:101410005031884207D14749091F096841F47021BA
:10142000444A121F1160704710B50022026847F647
:10143000F0739A430C6A8B6823430C6923434C690D
:1014400023438C692343CC6923434C6A23438C6A2E
:1014500023431A430260CB6843600B6883604B6888
:10146000C36010BD0021016041608160C160016105
:1014700041618161C161016241628162704721B154
:10148000026842F00102026004E002684FF6FE7357
:101490001A40026070471AB103680B43036002E010
:1014A00003688B430360704741607047014648689A
:1014B00080B2704701460020002201F080531BB12A
:1014C0001C4B083B1A6802E0194B083B1A6802EAF9
:1014D00001030BB1012000E00020704700F08051B3
:1014E00019B11449091F086002E011490839486020
:1014F000704701460020002201F080531BB10D4BC4
:10150000083B1A6802E00A4B083B1A6802EA01032A
:101510000BB1012000E00020704700F0805119B1AC
:101520000449091F086002E0014908394860704712
:10153000080002400804024010B50446F7488442FF
:1015400009D101214805FFF78CFC00214FF4001060
:10155000FFF787FC08E001218805FFF782FC0021E6
:101560004FF48000FFF77DFC10BD2DE9F04385B0FE
:1015700004460D460026B1460427DFF8A483A6885A
:101580004FF6C07006406846FFF7D7FBDDF80880CD
:10159000E448B8FBF0F01FFA80F946EA0906A68095
:1015A00020884FF6FE71084020800026DE4928681A
:1015B00088420CD828684000B8FBF0F087B2042FAE
:1015C00000DA04273E4309F10100208427E0E8887F
:1015D0004BF6FF71884206D1286800EB4000B8FB4B
:1015E000F0F087B209E0286800EBC00101EB0010C1
:1015F000B8FBF0F087B247F48047C7F30B0008B997
:1016000047F0010747F4004006434FF4967009FB8A
:1016100000F04FF47A7190FBF1F0401C2084A68317
:10162000208840F00100208026884FF6F5300640E3
:10163000A8886989084306432680A8892989084320
:10164000208105B0BDE8F08341F2883101600021BE
:1016500081804BF6FF71C1800021018141814FF4EF
:1016600080418181704721B1028842F001020280ED
:1016700004E002884FF6FE731A400280704721B1E1
:10168000828842F40062828004E082884FF2FF7315
:101690001A408280704721B1828842F48052828051
:1016A00004E082884EF6FF731A408280704721B1B1
:1016B000028842F48072028004E002884FF6FF63E1
:1016C0001A400280704721B1028842F40072028001
:1016D00004E002884FF6FF531A400280704721B1A0
:1016E000028842F48062028004E002884FF6FF33F1
:1016F0001A40028070470A46002181894FF6017323
:10170000194002F0FE0319438181704721B182899B
:1017100042F00102828104E082894FF6FE731A4092
:101720008281704721B1028842F04002028004E0C9
:1017300002884FF6BF731A40028070471AB183883F
:101740000B43838002E083888B4383807047018250
:1017500070470146088AC0B2704712B141F00101DA
:1017600002E04FF6FE7319400182704708B5024649
:101770000020009000920098084400900098008893
:1017800008BD21B1028842F40042028003E00288D1
:10179000C2F30E0202807047B1F5006F04D10288D7
:1017A00042F40062028004E002884FF2FF731A40A4
:1017B00002807047B1F5005F04D1028842F4005204
:1017C000028004E002884DF6FF731A4002807047E1
:1017D00021B1028842F48052028004E002884EF671
:1017E000FF731A4002807047B1F5006F04D1028880
:1017F00042F40062028004E002884FF2FF731A4054
:101800000280704721B1028842F02002028004E089
:1018100002884FF6DF731A40028070470146088B3A
:101820000012704721B1028842F01002028004E0E9
:1018300002884FF6EF731A400280704721B9028880
:1018400042F08002028004E002884FF67F731A4063
:1018500002807047B1F5804F05D0828B4BF6FF7345
:101860001A40828303E0828B42F480428283704775
:1018700070B502460024002500230020958A138BB2
:101880001B0445EA030626F07F4404EA01068E4263
:1018900001D1012000E0002070BD10B501460020FC
:1018A000002300228B8A0A8B120443EA020424F0EC
:1018B0007F4010BD0CB50246002000230193009329
:1018C00000920B0F019321F07F41019B1BB1009B04
:1018D0001433009303E0090C009B18330093009B22
:1018E0001B680B400BB1012000E000200CBD002262
:1018F00021F07F42D3438382704730B502460020F7
:101900000023948801F0E06504EA154321F07F414B
:10191000948A0C4054B14BB1012008E000540040BF
:1019200000127A0040420F00A0860100002030BD66
:10193000002221F07F42D3438382704729B1504A6D
:10194000128802434E4B1A8004E04D4A12888243AB
:101950004B4B1A8070474A48001D008840F0100029
:101960004749091D088070474548001D00884FF60B
:10197000EF7108404249091D088070470021404826
:101980001C300188001F008841EA0040704700B504
:101990000246FFF7E0FF100C394918310880091D95
:1019A0000A80FFF7E1FF00BD00B50246FFF7D3FF55
:1019B000C2F30340324908310880091D0A80FFF74D
:1019C000D3FF00BD00B50246FFF7C5FF100C2C4940
:1019D00020310880091D0A80FFF7C6FF00BD0020E6
:1019E0002749103109880907080B2549143109884E
:1019F0000843704700BF2248001D008800F0200007
:101A00000028F8D070471E48001D00884FF6F77177
:101A100008401B49091D088000BF1948001D0088A7
:101A200000F008000028F8D0704701460020144A52
:101A3000121D12880A400AB1012000E00020704700
:101A40000F49091D098881430D4A121D11807047F5
:101A5000014600200A4A121D12880A40D0B2084AE4
:101A600012880A4012B108B1012000E0002070473E
:101A70000349091D09888143014A121D11807047DD
:101A80000028004010B50120FFF7F8F90020FFF70B
:101A9000F5F910BD2A49086070472949091F0860F7
:101AA0007047274984310860704701460020254A65
:101AB00010884FF67F4210400843224A108070473A
:101AC000014600201F4A10884FF6807210400843DC
:101AD0001C4A1080704708B500220092194A2C3A1F
:101AE0000092009A02440092009A116008BD08B565
:101AF00001460020009013482C38009000980844BC
:101B000000900098008808BD0D489C300068C0B265
:101B100070470C480830008840F00100094908313E
:101B2000088070470648A0300068C0B2704705487A
:101B30000830008840F002000249083108807047F0
:101B400004860D422C6C004010B501210807FFF7F8
:101B500088F900214FF08050FFF783F910BD2A4922
:101B60000862704728490861704701460020274AEB
:101B7000106820F0E0000843106070472249A0314F
:101B80000860704710B502460020204B186820F00E
:101B90000300104318601E4B1B6843F004031C4CE9
:101BA0002360012901D130BF00E020BF184B1B6822
:101BB00023F00403164C236010BD1448006840F065
:101BC0000400124908600846006840F002000860FE
:101BD0000F48006840F004000D49086000BF00BFD6
:101BE00030BF704701460020084A52680A400AB1D7
:101BF000012000E0002070470449096841EA8001A3
:101C0000024A11607047000000000E420070004060
:101C100010ED00E010B50446BE48844208D1012111
:101C20008014FFF711F90021A014FFF70DF916E059
:101C3000B948844208D101210014FFF712F90021AC
:101C40002014FFF70EF90AE0B448844207D10121BD
:101C5000C013FFF706F90021E013FFF702F910BDEA
:101C600010B50022028802F441520B884C882343AD
:101C70008C882343CC8823430C8923434C892343FA
:101C80008C892343CC8923431A430280838B4FF2F0
:101C9000FF74234083830B8A038210BD2DE9F04F2C
:101CA00085B005460C464FF0000902274FF00008AA
:101CB0004FF0010B0026B246A88B4FF240010840BE
:101CC000A88302202884B5F81C90A068022801D1BE
:101CD00000BF38E0A08810B94FF0010B01E04FF0D1
:101CE000020B8D48854200D100E000BF6846FFF737
:101CF00024F8DDF800A0E088B0F5007F0AD14FEAB3
:101D00001A2000EB80004000A168B0FBF1F0401DFC
:101D100086B20BE04FEA4B10BAFBF0F000EB80000C
:101D20004000A168B0FBF1F0401D86B20A20B6FB6E
:101D3000F0F606F00108A6EB0800C0F34F074FF6D7
:101D4000FF7000EA0828022F01DBFF2F02DD0227C7
:101D50004FF00008E08840EA080038432884A08853
:101D6000A1890843618808432188084340F4006042
:101D700040EA0909A5F81C9005B0BDE8F08F0021E4
:101D8000018041808180C180018141818181C18147
:101D90000721018270470021018041808180C1803C
:101DA0000221816000218181704721B1028842F0C7
:101DB0004002028004E002884FF6BF731A4002809E
:101DC000704721B1828B42F48062828304E0828B6F
:101DD0004FF6FF331A408283704730B5002400234A
:101DE0000C110125A540ABB21AB185881D43858031
:101DF00002E085889D43858030BD1AB183880B43FE
:101E0000838002E083888B438380704781817047A1
:101E10000146888970474FF6FF62914204D00288DC
:101E200042F48072028004E002884FF6FF631A4099
:101E30000280704721B1828842F00402828004E06F
:101E400082884FF6FB731A408280704702884FF2F7
:101E5000FF731A40028002880A430280704701889B
:101E600041F480510180704721B1028842F4005250
:101E7000028004E002884DF6FF731A40028070472A
:101E800002460020012901D0108B00E0908A7047A3
:101E90000146088A7047B1F5804F04D1028842F4A8
:101EA0008042028004E002884BF6FF731A400280F1
:101EB00070470246002013890B400BB1012000E05F
:101EC00000207047CA4302817047F0B502460020E7
:101ED00000240023002501F00F070126BE40B4B204
:101EE0000B1101269E40B3B2968806EA03051689B7
:101EF000264016B10DB1012000E00020F0BD10B564
:101F0000002201F00F040123A3409AB2D3430381BE
:101F100010BD00000030014000380040003C00408F
:101F200010B50446FE48844208D10121C014FEF7D2
:101F30008BFF0021E014FEF787FFC4E0B4F1804F6F
:101F400008D101210846FEF78CFF00210120FEF791
:101F500088FFB8E0F348844208D101210220FEF74F
:101F600080FF00210220FEF77CFFACE0EE488442B7
:101F700008D101210420FEF774FF00210420FEF7A0
:101F800070FFA0E0E948844208D101210820FEF753
:101F900068FF00210820FEF764FF94E0E4488442D3
:101FA00008D101211020FEF75CFF00211020FEF770
:101FB00058FF88E0DF48844208D101212020FEF745
:101FC00050FF00212020FEF74CFF7CE0DA488442DD
:101FD00008D101214014FEF737FF00216014FEF7FD
:101FE00033FF70E0D548844209D10121C804FEF7CF
:101FF0002BFF00214FF40020FEF726FF63E0D048BE
:10200000844209D101210805FEF71EFF00214FF48B
:102010008010FEF719FF56E0CA48844209D1012119
:102020004805FEF711FF00214FF40010FEF70CFFEA
:1020300049E0C548844208D101214020FEF711FF44
:1020400000214020FEF70DFF3DE0C048844208D14A
:1020500001218020FEF705FF00218020FEF701FF0F
:1020600031E0BB48844208D101218015FEF7F9FE1A
:102070000021A015FEF7F5FE25E0B648844209D1FF
:1020800001210804FEF7E0FE00214FF48030FEF746
:10209000DBFE18E0B048844209D101214804FEF774
:1020A000D3FE00214FF40030FEF7CEFE0BE0AB482C
:1020B000844208D101218804FEF7C6FE00214FF4B6
:1020C0008020FEF7C1FE10BD00220288944B98428A
:1020D0000ED0994B98420BD0B0F1804F08D0914B65
:1020E000984205D0904B984202D0904B984204D130
:1020F0004FF68F731A404B881A438D4B984207D086
:102100008C4B984204D04FF6FF431A40CB881A43B9
:1021100002808B8883850B880385814B98420BD086
:10212000854B984208D08B4B984205D08A4B9842F9
:1021300002D08A4B984201D10B7A03860123838215
:10214000704770B5002400220023058C4FF6FE7600
:1021500035400584028C8388048B4FF68F752C40A4
:10216000B51E2C400D882C43751E2A400D892A432C
:102170004D882A436A4DA8420BD06F4DA84208D023
:10218000744DA84205D0744DA84202D0734DA842A8
:1021900013D14FF6F7752A404D892A434FF6FB7548
:1021A0002A408D882A434FF6FF652B404FF6FF5596
:1021B0002B408D892B43CD892B4383800483CD888D
:1021C0008586028470BD70B5002400220023058C32
:1021D0004FF6EF7635400584028C8388048B48F6F1
:1021E000FF752C404FF6FF452C400D884FF6FF76CB
:1021F00006EA05252C434FF6DF752A400D8906EACD
:1022000005152A434D8806EA05152A43444DA84280
:1022100002D0494DA8421DD14FF67F752A404D8905
:102220004FF6FF7606EA05152A434FF6BF752A409A
:102230008D8806EA05152A434FF6FF352B404FF2ED
:10224000FF752B408D8906EA85052B43CD8906EA6B
:1022500085052B4383800483CD880587028470BD68
:1022600070B5002400220023058C4FF6FF66354030
:102270000584028C8388848B4FF68F752C404FF633
:10228000FC752C400D882C434FF6FF552A400D89D4
:102290004FF6FF7606EA05252A434D8806EA05250E
:1022A0002A431F4DA84202D0234DA8421DD14FF210
:1022B000FF752A404D894FF6FF7606EA05252A4329
:1022C0004FF6FF352A408D8806EA05252A434EF64B
:1022D000FF752B404DF6FF752B408D8906EA0515DD
:1022E0002B43CD8906EA05152B4383808483CD8853
:1022F0008587028470BD70B5002200230024058C00
:102300004EF6FF7635400584038C8488828B48F630
:10231000FF752A404FF6FF452A400D8820E0000057
:10232000002C01400004004000080040000C004068
:10233000001000400014004000340140004C0140F7
:10234000005001400054014000180040001C0040B3
:10235000002000400040014000440140004801408E
:102360004FF6FF7606EA05252A434DF6FF752B400A
:102370000D8906EA05352B434D8806EA05352B43C2
:10238000FA4DA84202D0FA4DA84208D14BF6FF758B
:102390002C408D894FF6FF7606EA85152C43848004
:1023A0008283CD88A0F84050038470BD828B4FF2A9
:1023B000FF331A408283828B4FF6FF7303EA0123B7
:1023C0001A4382837047F0B50C461546002200215F
:1023D0000026078C4EF6FF7C07EA0C070784828BE9
:1023E000018C4FF6FF7707EA043640F6FF473A4084
:1023F0004FF6FF7707EA05273A434FF6FF7707EADC
:1024000003373A43D94FB8420ED0D94FB8420BD018
:10241000B0F1804F08D0D74FB84205D0D64FB84260
:1024200002D0D64FB84206D14DF6FF77394046F478
:102430008057394305E047F6FF57394044F4805749
:10244000394382830184F0BD828B4FF6F3731A40C7
:102450008283828B0A4382837047F0B50C4615460F
:10246000002200210026078C4FF6FF6C07EA0C07BC
:102470000784828B018C4FF6FF7707EA04264FF61C
:102480000C773A404FF6FF7707EA03172F433A439A
:10249000B64FB8420ED0B64FB8420BD0B0F1804F15
:1024A00008D0B44FB84205D0B34FB84202D0B34FB2
:1024B000B84206D14FF6FF57394046F4807739438A
:1024C00005E04FF2FF57394044F480773943828367
:1024D0000184F0BD028B4FF2FF331A400283028B5E
:1024E0004FF6FF7303EA01231A4302837047F0B5E6
:1024F0000C461546002200210026078C4FF6EF7C83
:1025000007EA0C070784028B018C4FF6FF7707EA76
:10251000041640F6FF473A404FF6FF7707EA0337C5
:102520003A434FF6FF7707EA05273A438F4FB84201
:102530000ED08F4FB8420BD0B0F1804F08D08D4FE6
:10254000B84205D08C4FB84202D08C4FB84206D169
:102550004FF6DF77394046F01007394305E04FF674
:102560005F77394044F01007394302830184F0BD9E
:10257000028B4FF6F3731A400283028B0A430283E5
:102580007047F0B50C46154600220021068C4FF628
:10259000FE773E400684028B018C4FF60C7632406B
:1025A0007E1C06EA03162E433243704EB0420ED014
:1025B0006F4EB0420BD0B0F1804F08D06D4EB0429C
:1025C00005D06D4EB04202D06C4EB04206D14FF6EF
:1025D000FD76314044F00106314305E04FF6F576D3
:1025E000314044F00106314302830184F0BD70B5EF
:1025F00005460C465D4885420ED05D4885420BD0AD
:10260000B5F1804F08D05B48854205D05A488542D5
:1026100002D05A48854200D100E000BF208850B95E
:102620002389A28861882846FFF7ABFFE188284606
:10263000FFF79EFF25E0208804280AD12389A2887D
:1026400061882846FFF753FFE1882846FFF742FFDD
:1026500017E0208808280AD12389A28861882846A3
:10266000FFF7FBFEE1882846FFF7EEFE09E023892D
:10267000A28861882846FFF7A6FEE1882846FFF772
:1026800095FE70BD2DE9F04105460C460026012758
:10269000608808B9022600E00026A088012801D140
:1026A000022700E001272088A0B92389A288618839
:1026B0002846FFF766FFE1882846FFF759FF238980
:1026C0003A4631462846FFF712FFE1882846FFF7D1
:1026D00001FF13E02389A28861882846FFF707FFDE
:1026E000E1882846FFF7F6FE23893A463146284618
:1026F000FFF747FFE1882846FFF73AFFBDE8F08182
:102700000A884B881A438B881A43CB881A430B8953
:102710001A434B891A438B891A43A0F84420704707
:102720004FF6FF71818000210180C18041800172DC
:1027300070470021018041808180C18001814181F9
:102740008181C18170470021018041800121818008
:102750000021C1800181704700210180418081807A
:10276000C18001814181818170470000002C0140BE
:10277000003401400004004000080040000C00400C
:1027800021B1028842F00102028004E002884FF683
:10279000FE731A400280704731B1B0F8442042F411
:1027A0000042A0F8442005E0B0F84420C2F30E0235
:1027B000A0F8442070471AB183890B43838102E05B
:1027C00083898B43838170478182704741EA02038A
:1027D000A0F8483070471AB183890B43838102E027
:1027E00083898B438381704701894FF6F8721140CA
:1027F000018170470A46002101894FF68F73194005
:1028000011430181704730B504460D4629462046E4
:10281000FFF7F0FF208940F00700208130BD2DE94F
:10282000F04104460D4616461F46602D06D13B4634
:10283000012231462046FFF75AFE05E03B460122C1
:1028400031462046FFF79DFE29462046FFF7D2FF7E
:10285000208940F007002081BDE8F08130B50C46AA
:1028600000210189C9B24FF6FF7505EA032515431A
:1028700025432943018130BD2DE9F04105460E462F
:1028800017469846002443463A4631462846FFF705
:10289000E5FF2C894FF6F870044044F007044FF62A
:1028A0008F70044044F070042C81BDE8F081F0B5D5
:1028B00004460D4616461F463B46324629462046EC
:1028C000FFF7CCFF208940F480402081F0BD0185D6
:1028D000828270470A46002101884FF68F731940A3
:1028E000114301807047F0B50C4615461E46002185
:1028F000002200230189028B038C4FF6F8773940C0
:1029000021434FF6FC473A4040F201173A434FF655
:10291000DD773B404FF6FF7707EA06172F433B432F
:10292000018102830384F0BD0A460021018B4FF62A
:102930008F7319401143018370470A460021018BB0
:1029400048F6FF7319404FF6FF7303EA0223194359
:10295000018370470A460021818B4FF68F7319401F
:102960001143818370470A460021818B48F6FF732B
:1029700019404FF6FF7303EA02231943818370471E
:1029800021B1028842F08002028004E002884FF602
:102990007F731A400280704721B1828842F004029E
:1029A000828004E082884FF6FB731A408280704771
:1029B00021B1828842F00802828004E082884FF6CA
:1029C000F7731A408280704721B1828842F0010279
:1029D000828004E082884FF6FE731A40828070473E
:1029E0000A460021018B4FF6F7731940114301830A
:1029F00070470A460021018B4FF2FF7319404FF6D2
:102A0000FF7303EA02231943018370470A4600213A
:102A1000818B4FF6F77319401143818370470A4643
:102A20000021818B4FF2FF7319404FF6FF7303EAC9
:102A300002231943818370470A460021018B4FF618
:102A4000FB7319401143018370470A460021018B33
:102A50004FF6FF3319404FF6FF7303EA0223194381
:102A6000018370470A460021818B4FF6FB731940A2
:102A70001143818370470A460021818B4FF6FF3353
:102A800019404FF6FF7303EA02231943818370470D
:102A90000A460021018B4FF67F73194011430183D1
:102AA00070470A460021018BC1F30E014FF6FF73F8
:102AB00003EA02231943018370470A460021818BF0
:102AC0004FF67F7319401143818370470A460021F6
:102AD000818BC1F30E014FF6FF7303EA0223194302
:102AE000818370470A460021018C4FF6FD7319401F
:102AF0001143018470470A460021018C4FF6F77399
:102B000019401143018470470A460021018C4FF699
:102B1000DF7319404FF6FF7303EA02131943018470
:102B200070470A460021018C4FF67F7319404FF61B
:102B3000FF7303EA02131943018470470A46002118
:102B4000018C4FF6FF5319404FF6FF7303EA02233F
:102B50001943018470470A460021018C4FF2FF732C
:102B600019404FF6FF7303EA0223194301847047AB
:102B70000A460021018C4DF6FF7319404FF6FF7392
:102B800003EA023319430184704730B5002301245E
:102B90008C40A3B2048C9C430484048C02FA01F59B
:102BA000ADB22C43048430BD30B5002304248C40E6
:102BB000A3B2048C9C430484048C02FA01F5ADB2E8
:102BC0002C43048430BD70B5034600200024184611
:102BD000183001258D40ACB21D8CA5431D8409B170
:102BE000082909D100EB6100056825F07005056032
:102BF0000568154305600EE00D1FC5F34E0528441A
:102C0000056825F4E045056005684FF6FF7606EA9D
:102C100002263543056070BD21B1028842F00202F0
:102C2000028004E002884FF6FD731A40028070476C
:102C300021B1028842F00402028004E002884FF6CB
:102C4000FB731A400280704721B1828842F08002F3
:102C5000828004E082884FF67F731A40828070473A
:102C600002884FF6F7731A40028002880A430280F6
:102C7000704782884FF68F731A40828082880A4399
:102C80008280704702894FF6F8731A4002810289E8
:102C90000A430281704702894FF67F731A4002810E
:102CA00002890A4302817047818470478185704799
:102CB000818670470187704781877047A0F8401070
:102CC000704702884FF6FF431A40028002880A4389
:102CD000028070470146888E70470146088F704712
:102CE0000146888F70470146B1F8400070470146A1
:102CF000888C70470146088D704702460020138A71
:102D00000B400BB1012000E000207047CA43028253
:102D1000704730B50246002000230024158A05EADA
:102D20000103958905EA010413B10CB1012000E00B
:102D3000002030BDCA430282704700000648804729
:102D400006480047FEE7FEE7FEE7FEE7FEE7FEE790
:102D5000FEE7FEE7FEE7FEE73F2E0108310101082E
:102D60000CB50020019000906C48006840F4803061
:102D70006A49086000BF6948006800F400300090AC
:102D80000198401C0190009818B90198B0F5A06F07
:102D9000F1D16248006800F4003010B101200090C9
:102DA00001E0002000900098012843D15C480068B1
:102DB00040F010005A4908600846006820F00300FF
:102DC00008600846006840F0020008605348406808
:102DD000524948600846406848600846406840F4E8
:102DE000806048600846406820F47C1048600846CF
:102DF000406840F4E81048600846006840F0807081
:102E0000086000BF4548006800F000700028F9D055
:102E10004248406820F00300404948600846406846
:102E200040F00200486000BF3C48406800F00C00E1
:102E30000828F9D10CBD10B5FFF792FF10BD10B5F1
:102E40003648006840F00100344908600846406890
:102E50003449084031494860084600683249084012
:102E60002E4908600846006820F480200860084663
:102E7000406820F4FE0048604FF41F008860FFF7B0
:102E8000DAFF4FF000602949086010BD10B500213D
:102E900000200022214B5B6803F00C0121B10429C2
:102EA00006D0082928D107E0214B224C236027E0D7
:102EB0001F4B204C236023E0184B5B6803F4701019
:102EC000164B5B6803F48032022303EB904022B977
:102ED000194B4343174C23600DE0104B5B6803F420
:102EE000003323B1144B4343124C236003E0104BD7
:102EF0004343104C236003E00D4B0E4C236000BF96
:102F000000BF064B5B68C3F303130C4CE15C094B39
:102F10001B68CB40074C236010BD0000001002402E
:102F2000002002400000FFF8FFFFF6FE08ED00E081
:102F300000127A001400002000093D001800002053
:102F40000246002005E011F8013B02F8013B431C5A
:102F5000D8B20B78002BF6D1137070472DE9F041F1
:102F600005460E461446002714B90020BDE8F0813E
:102F70001DB9042020700020F8E71EB90C20207035
:102F80000020F3E7FB480078002803DD11202070C3
:102F90000020EBE72878012808D0022807D0032872
:102FA00002D0042804D100E000BF00BF00BF03E04E
:102FB000012020700020D9E700BF02F05DFC074629
:102FC00005F10F013046FFF7BBFF8046384602F09F
:102FD00057FC002020704046C8E70146002002E070
:102FE000491C421CD0B20A78002AF9D170472DE959
:102FF000F04105460E4614464FF000080CB9BDE8F6
:10300000F08115B904202070F9E716B90C20207062
:10301000F5E7D8480078002802DD12202070EEE79E
:103020002878012808D0022807D0032802D00428D5
:1030300004D100E000BF00BF00BF02E0012020700B
:10304000DDE700BF02F018FC80463046FFF7C5FF01
:103050000746012F05DD404602F012FC0B202070D0
:10306000CDE7314605F10F00FFF76AFF404602F059
:1030700007FC0020207000BFC1E77CB5002514E0EC
:103080006946284602F020FA064666B9BA4850F862
:10309000254044B1012C06D0D4E9020100EB8100A7
:1030A000206401986064681CC5B21E2DE8DD7CBDFB
:1030B000002402E0C82002F0E7FAB04800780028B7
:1030C000F8D0AF4800686421B0FBF1F0AC4908606B
:1030D0000846006828B90020AA490870FF2002F0BD
:1030E0003EFA00BF02F0C8FB0446A7480068A749A3
:1030F00008600020A4490860204602F0C1FBA348F4
:1031000000689F490968B0FBF1F0C0F164009D4977
:10311000087002F008FCFFF7B0FF642002F0B4FA78
:10312000E0E700B585B0032000218022984BCDE96F
:103130000132CDE903104FF6FE701D23954A009031
:10314000AFF2930001F08FFF05B000BD002400BF77
:1031500002F092FB04468C480068401C8A490860D3
:10316000204602F08DFB02F0DDFBF1E700B585B0F3
:10317000032000218022884BCDE90132CDE90310E4
:103180004FF6FF701E23854A0090AFF23F0001F01A
:103190006AFF05B000BD04E0002200F8012B4A1EC2
:1031A00091B20029F8DC704730B54FF416717C48B5
:1031B000FFF7F1FF7A4B03F1140500240AE0002029
:1031C00018705D603F20D8730021197414331435D2
:1031D000601C84B21D2CF2DB0020187058603F2068
:1031E000D873002119746E486E49086030BD30B53F
:1031F00040F20C516C48FFF7CEFF7C215E48FFF790
:10320000CAFF694B03F14C0500240AE05D613F20D1
:1032100083F8480000214920C1544C334C35601CD0
:10322000C4B2102CF2D3002058613F2083F848002C
:1032300000214920C15400205C4908605A485C497B
:10324000086030BD00225B4B1A705B49002004E02F
:10325000002201F8012B421CD0B20428F8DB002226
:10326000564B1A70564B1A70564B1A60564B1A60D2
:1032700070470020554908603E490870544908705D
:103280005449087054490870544908603E49086020
:103290003E4908603A49086038490870704710B5DF
:1032A00002F03CFBFFF7E5FFFFF7CCFFFFF79FFFC6
:1032B000FFF77AFF00F02FFF01F071F801F0ADFB8E
:1032C000FFF754FFFFF72DFF02F029FB10BD424826
:1032D0000078012808D127480078FF2804D2254823
:1032E0000078401C2349087070473D49314A1278E4
:1032F000885C3149095C3A4A515C01EBC001304AB3
:103300001170704710B5002433480078012830D17F
:1033100002F0B2FA044617480078002804DD154888
:103320000078401E1349087012480078F0B9284808
:103330000078D8B9FFF7D9FF214800781F490978EC
:10334000884213D00C481E49097850F821001D49C5
:10335000086008460068406B401C096848631F48C5
:103360000068401C1D49086002F0A2FA204602F0E5
:1033700087FA10BD41000020400A002040000020D4
:1033800038000020340000204C0000203C000020C9
:10339000400600203C080020400800203C0A002095
:1033A000700300202C000020BC0A00205C000020DC
:1033B000540000204500002046000020430000206B
:1033C0004400002058000020500000206C00002025
:1033D000420000204B0000204A000020280000206E
:1033E000ECFF020810B50024FE480078012811D136
:1033F00002F042FA0446FC48007840B9FB480078E5
:10340000FF2804D2F9480078401CF849087020468B
:1034100002F036FA10BD10B5002402F02DFA044671
:10342000F1480078F0B9F1480078D8B9FFF75DFFAE
:10343000EF480078EF490978884213D0EE48EC490C
:10344000097850F82100ED49086008460068406B93
:10345000401C09684863EA480068401CE849086065
:1034600002F021FA204602F00BFA10BD10B500243C
:10347000DC480078012822D102F0FEF90446DB483E
:103480000078002818DDD9480078401ED749087018
:103490000846007860B9D448007828B9204602F080
:1034A000EFF9FFF7B8FF0AE0204602F0E9F906E07D
:1034B000204602F0E5F902E0204602F0E1F910BDF5
:1034C00010B5C848007890B9FFF70FFFC8480078DA
:1034D000C8490870C848C649097850F82100C7494A
:1034E000086008460068C749086002F0CCF910BDC2
:1034F00010B50024022002F0C7F802F0BDF904461E
:103500000020C1490860204602F0BAF9642002F0A8
:10351000BBF802F0B1F90446BB480068BB4908603B
:103520000120BB490870204602F0AAF910BD70B511
:10353000002602F048FA02F09FF90646B5480068F6
:10354000401CB4490860304602F09AF9A54800785A
:10355000012853D1B048007820B1012804D00228B6
:1035600009D103E001250BE0002509E00125012038
:10357000A949087004E001250020A749087000BF90
:1035800000BF05B970BDA548046833E002F074F9C6
:103590000646608D50B3608D401E80B2608528BBAA
:1035A00094F82C0000F0370040B114F82C0F20F0F4
:1035B00037002070012060702C3C02E0002084F86D
:1035C0002D0094F82C0000F0080078B93034A07871
:1035D0009349097808439249087020789149085C1A
:1035E0006178084314F830198E4A505464693046A3
:1035F00002F046F994F82E001E28C7D100BFC1E79B
:103600004FF48F707047704710B590F8302001F17B
:103610000B039B5C90F83140A34301F10B04A354CE
:1036200023469B5C23B98B7A90F83240A3438B727C
:1036300010BD2DE9F04F05460F4690469946A87AF1
:1036400079490E5C05F10B00805D11F800B00BEBC1
:10365000C60000F0FF0A684850F82A4000202034D5
:1036600060812760207B20EA0800207384F80D9099
:10367000207B203C00F0080068B994F832006849CB
:1036800009780843664908706648805D94F83110EF
:1036900008436449885529462046FFF7B5FF504640
:1036A000BDE8F08F10B5574A1268D061554A1268CC
:1036B00092F8303000F10B02D25C524B1B6893F849
:1036C00031301A434F4B1B6893F8304000F10B0325
:1036D0001A55827A4B4B1B6893F832301A43827228
:1036E000484A126892F830104E4A525C454B1B68AB
:1036F00093F831309A434B4B5A541A46525C42B9B4
:10370000404A126892F83230454A12789A43444B44
:103710001A7010BD0023837200F10B01002204E037
:10372000002301F8013B531CDAB2042AF8DB70478E
:1037300005E011F8013B00F8013B531E9AB2002A44
:10374000F7DC70472DE9F84F05460E4617469846B8
:10375000DDE90BABDDF828900020009002F08CF83A
:10376000009032480468002C7ED054F8140F2F4982
:103770000860009802F084F844F8146CA5760020E4
:1037800020766076E08244F810AC44F8089C44F857
:103790000C7C24F804BC24F8028CE077E810207735
:1037A00005F00700E076217F01208840A077E17EC8
:1037B0000120884060770020A0602061E0602062E6
:1037C000A0626062E06220633F2084F83400143C11
:1037D000002149200155204602F0F4F8204602F06D
:1037E0009FF825E04A000020410000204200002010
:1037F0004400002043000020400A00205800002020
:1038000028000020500000204C000020380000203C
:10381000400000206C000020600000205C000020C0
:103820004500002046000020ECFF02085400002064
:1038300002F022F80090194840F825401848006826
:1038400060610020A0611648006810B1144800684B
:103850008461134804603034A07812490978084321
:1038600010490870207800E012E00F49085C617888
:10387000084314F830190C4A50540C480078401C86
:103880000A490870009801F0FBFF0020BDE8F88F9E
:10389000009801F0F5FF4220F8E70000400A002000
:1038A0005C00002045000020460000204B00002066
:1038B0002DE9F05F04460F4691461E464FF0000B7F
:1038C00016B90020BDE8F09F1CB96E2030700020B2
:1038D000F8E72078052803D0012030700020F1E7B8
:1038E00009F0800ABAF1000F04D029F080094FF0E6
:1038F000010801E04FF000080020307001F0BCFF2B
:103900008346B9F1000F2CD0B9F1010F3BD0B9F1CA
:10391000020F03D0B9F1030F46D111E0208900EA6C
:103920000705BD4206D1B8F1010F05D12089A84392
:10393000208101E070203070584601F0A1FF3AE08C
:10394000208900EA070535B1B8F1010F05D12089BA
:10395000A843208101E070203070584601F090FFAC
:1039600029E0208927EA0005BD4206D1B8F1010F00
:1039700005D120892843208101E07020307058460D
:1039800001F07EFF17E0208927EA000535B1B8F184
:10399000010F05D120892843208101E0702030707B
:1039A000584601F06DFF06E0584601F069FF00251A
:1039B0006F20307000BF00BF284683E72DE9F0413B
:1039C00006460D46002715B90020BDE8F081FA48EB
:1039D0000078002803DD102028700020F5E701F0B2
:1039E0004BFF0746F548046894B100684068F34906
:1039F0000860052020702681002060603F20A072B2
:103A00000021E172384601F03BFF0020287004E0FD
:103A1000384601F035FF722028702046D5E730B5D2
:103A200001464A6808682AB9CC68606028B1002558
:103A3000456002E0106000B142608B6800255D6265
:103A400030BDF0B506460F46B468002028346080CB
:103A50002780207920F020002071002060712079DB
:103A6000283C88B93034A078D54909780843D4492E
:103A700008702078D349085C6178084314F830193D
:103A8000D04A5054012500E000253046FFF7C7FF1B
:103A90002846F0BD2DE9F0470446894615464FF00B
:103AA000000A15B92046BDE8F0871CB96E202870C1
:103AB0002046F8E7C0480078002803DD0F20287072
:103AC0002046F0E72078052803D001202870204602
:103AD000E9E701F0D1FE8246606808B1012700E005
:103AE0000027B9F1000F03D0B9F1010F40D11BE05D
:103AF0009FB93F20A0720021E17200202070AF48E2
:103B00000068606000202081AC480460504601F0ED
:103B1000B7FE00202870002605E0504601F0B0FEF8
:103B20004920287026462AE0D4F8048005E00021C8
:103B30004046FFF786FFD8F80080B8F1000FF6D1B5
:103B40003F20A0720021E172002020709B48006895
:103B500060600020208199480460504601F090FE8A
:103B6000012F01D1FFF757FC00202870002606E046
:103B7000504601F085FE07202870264600BF00BF92
:103B8000304690E72DE9F04105460E4614460027E1
:103B900014B90020BDE8F0811DB96E20207000200E
:103BA000F8E71EB90C2020700020F3E78248007867
:103BB000002803DD112020700020EBE701F05CFEFF
:103BC00007462878052806D0384601F059FE01201E
:103BD00020700020DEE705F10A013046FFF7B0F95A
:103BE0008046384601F04CFE002020704046D1E768
:103BF0002DE9F04105460E4614464FF000080CB979
:103C0000BDE8F08115B96E202070F9E716B90C20D7
:103C10002070F5E768480078002802DD1220207047
:103C2000EEE701F029FE80462878052805D04046B9
:103C300001F026FE01202070E2E73046FFF7CDF9C3
:103C40000746012F05DD404601F01AFE7320207063
:103C5000D6E7314605F10A00FFF772F9404601F058
:103C60000FFE0020207000BFCAE7F0B51446059E85
:103C7000554F3F6897F82C7047F02007DFF848C190
:103C8000DCF800C08CF82C700027DFF83CC1DCF8B1
:103C900000C08CF82D704C4F3F687E854A4F3F68BE
:103CA00079620C828B74484F3F688F6047680F6061
:103CB00000274F60C860456805B169604160424FA8
:103CC0003F6897F830203F4FBF5CDFF8FCC0DCF85E
:103CD00000C09CF831C027EA0C07DFF8E8C00CF8F8
:103CE00002706746BF5C5FB9374F3F6897F832C0D4
:103CF000334F3F7827EA0C07DFF8C4C08CF8007018
:103D0000F0BD2DE9F04F89B005460F4691469A4621
:103D1000129E0020029016B909B0BDE8F08F1DB9BF
:103D20006E2030700020F7E723480078002803DD7C
:103D3000022030700020EFE724480078002803DDDF
:103D40000D2030700020E7E72878052803D00120F7
:103D500030700020E0E709F0800BBBF1000F04D0C9
:103D600029F080094FF0010801E04FF0000801F050
:103D700083FD0290B9F1000F56D0B9F1010F76D052
:103D8000B9F1020F03D0B9F1030F6FD12CE02889EC
:103D900000EA0704BC421BD1B8F1010F02D1288907
:103DA000A0432881084800680485029801F068FD56
:103DB000002030702046AFE7410000203000002096
:103DC0004500002046000020500000204200002056
:103DD0004B463A4604A92846CDF800A0FFF745FF18
:103DE000029801F04DFD6AE0288900EA07047CB1E1
:103DF000B8F1010F02D12889A0432881D748006873
:103E00000485029801F03CFD00203070204683E7D5
:103E10004B463A4604A92846CDF800A0FFF725FFF7
:103E2000029801F02DFD4AE0288927EA0004BC42EF
:103E30000FD1B8F1010F02D1288920432881C7484A
:103E400000680485029801F01BFD002030702046B8
:103E500062E74B463A4604A92846CDF800A0FFF792
:103E600004FF029801F00CFD29E000E01FE0288922
:103E700027EA00047CB1B8F1010F02D12889204360
:103E80002881B64800680485029801F0F9FC0020FA
:103E90003070204640E74B463A4604A92846CDF804
:103EA00000A0FFF7E2FE029801F0EAFC07E00298AA
:103EB00001F0E6FC00246F20307020462CE700BFA4
:103EC000FFF7A9FA01F0D8FC0290A448006890F826
:103ED0002D0020B3A148006890F82D000390002029
:103EE0009E49096881F82D0004A8FFF798FD00207D
:103EF0009A49096881F82C00029801F0C1FC00245D
:103F00000398012805D0022802D10E20307003E06A
:103F100000BF0A20307000BF00BF2046FCE68F487B
:103F20000068048DB8F1010F1ED1B9F1000F0ED059
:103F3000B9F1010F0CD0B9F1020F03D0B9F1030FA1
:103F40000AD100E000BF2889A04328810BE000BF10
:103F500028892043288106E0029801F091FC6F2017
:103F600030700020D8E600BF029801F089FC0020E4
:103F700030702046D0E670B5002501F07DFC054686
:103F800076480068048D284601F07AFC204670BD12
:103F90002DE9FC5F0446894692461E4600200090AB
:103FA0000EB9BDE8FC9F1CB96E2030700020F8E708
:103FB0002078052803D0012030700020F1E701F0BF
:103FC0005BFC0090BAF1000F03D0BAF1010F0AD1E7
:103FD00004E0208920EA090020810BE0208940EAE2
:103FE0000900208106E0009801F04AFC7120307041
:103FF0000020D6E700BF4FF0000B656855E0A87CB5
:1040000040B3012838D0022802D0032844D111E05F
:104010002089298A00EA0107288AB84209D139464D
:104020002846FFF70EFD8046B8F1010F01D14FF091
:10403000010B38E02089298A00EA01074FB139468F
:104040002846FFF7FEFC8046B8F1010F01D14FF082
:10405000010B28E0288A218920EA0107288AB84232
:1040600009D139462846FFF7ECFC8046B8F1010F2C
:1040700001D14FF0010B16E0288A218920EA0107BF
:104080004FB139462846FFF7DCFC8046B8F1010FF6
:1040900001D14FF0010B06E0009801F0F1FB6F2019
:1040A000307000207DE700BF2D68002DA7D100985B
:1040B00001F0E6FBBBF1010F01D1FFF7ACF901F014
:1040C000DBFB009020890190009801F0D9FB0020D3
:1040D0003070019865E72DE9F04105460C46002750
:1040E00014B90020BDE8F0811DB96E2020700020B9
:1040F000F8E72878052803D0012020700020F1E798
:1041000001F0BAFB07462E89384601F0B9FB0020C2
:1041100020703046E6E770B578211148FFF73BF88C
:104120000F4C04F10C0600250AE0002020706660A8
:104130003F20A0720021E1720C340C36681C85B25D
:10414000092DF2DB0020207060603F20A07200216A
:10415000E17203480349086070BD00005000002070
:10416000C8050020300000202DE9F84F06460F4614
:1041700090461C46002000900CB9BDE8F88F1EB98F
:10418000622020700020F8E706F0030018B16220DA
:1041900020700020F1E7022F03D25B202070002066
:1041A000EBE7B8F1040F03D25C2020700020E4E7B5
:1041B00001F062FB00908B480568006820B18948D7
:1041C0000068406887490860009801F059FB1DB9F4
:1041D0005A2020700020D0E7B14606EB080A4FF0C5
:1041E000000B05E0C9F800A0D146C2440BF1010B59
:1041F000781E5845F6D80020C9F800002E606E6081
:104200002F61EF60C5F8088020702846B5E72DE9DA
:10421000F04104460D46002715B90020BDE8F081A5
:104220001CB9602028700020F8E701F025FB074644
:10423000206960B16668306860602069401E206156
:10424000384601F01DFB002028703046E6E738466E
:1042500001F016FB5D2028700020DFE72DE9F0411A
:1042600005460E461446002714B90020BDE8F0812B
:104270001DB9602020700020F8E71EB90C202070C6
:104280000020F3E758480078002803DD1120207053
:104290000020EBE701F0F0FA074605F11401304683
:1042A000FEF74EFE8046384601F0EAFA0020207004
:1042B0004046DBE72DE9F04105460E4614464FF037
:1042C00000080CB9BDE8F08115B960202070F9E74D
:1042D00016B90C202070F5E743480078002802DD6D
:1042E00012202070EEE701F0C7FA80463046FEF754
:1042F00074FE0746012F05DD404601F0C1FA632038
:104300002070DFE7314605F11400FEF719FE404644
:1043100001F0B6FA0020207000BFD3E770B5044664
:104320000D4600260CB9602070BD0DB95F20FBE77B
:1043300001F0A2FA0646D4E90310884204D33046BD
:1043400001F09EFA5E20EFE76068286065602069F2
:10435000401C2061304601F093FA0020E4E770B57C
:1043600005460C4600260DB9602070BD0CB96120D1
:10437000FBE701F081FA0646286820606868606003
:10438000A868A060E868E06028692061304601F014
:1043900077FAD4E90301401A60610020E5E770B5BF
:1043A00090211248FEF7F7FE104C00250DE0681C26
:1043B00000EB40000D4901EBC00060603F2020751C
:1043C000002161751834681C85B2052DEFDB0020D3
:1043D00060603F2020750021617504480149086034
:1043E00070BD00006400002041000020C80F0020C4
:1043F0002DE9F04106460D464FF0000815B90020A2
:10440000BDE8F0811EB9042028700020F8E730785C
:10441000022803D0012028700020F1E701F02CFAD7
:1044200080467468E08A00280FDD2169081D20613C
:104430000F68E08A401EE082A1682069884201D1AD
:10444000606820610020287002E01F20287000278B
:10445000404601F015FA3846D2E72DE9F04106460C
:104460000F464FF00008FE480078002802DD0020CB
:10447000BDE8F08101F000FA8046FA48046800685F
:1044800020B1F84800684068F6490860404601F0ED
:10449000F7F90CB301F0F0F98046F3480568E5B18F
:1044A00000680068F0490860404601F0E9F96E6074
:1044B00006EB8700A860EE602E61AF820020E882E4
:1044C000022020700020208165603F20E0730021E1
:1044D00021742046FFF71EF908E0E248006860609A
:1044E000E0480460404601F0CBF900242046BFE7D5
:1044F0002DE9F0470446894615464FF0000A15B9E4
:104500002046BDE8F0871CB9042028702046F8E753
:104510002078022803D0012028702046F1E7D048F7
:104520000078002803DD0F2028702046E9E701F01D
:10453000A3F98246A07A10B14FF0010801E04FF0D4
:104540000008B9F1000F03D0B9F1010F4DD123E0FC
:10455000B8F1000F19D13F20E07300212174666883
:10456000C14800683060C048066000202070BD4827
:104570000068606000202081BA480460504601F065
:104580007FF900202870002705E0504601F078F9F7
:104590004920287027462FE005E000230422194611
:1045A0002046FFF746F8A07A0028F6D13F20E073B6
:1045B000002121746668AC4800683060AA48066033
:1045C00000202070A7480068606000202081A54876
:1045D0000460504601F054F9B8F1010F01D1FEF723
:1045E0001AFF00202870002706E0504601F048F925
:1045F00007202870274600BF00BF384681E770B506
:10460000054600260DB9042070BD2878022801D087
:104610000120F9E701F030F906466C686068E06057
:10462000606820610020E082304601F029F9002016
:10463000EAE72DE9F0470646884615464FF000099F
:1046400015B90020BDE8F0871EB9042028700020AD
:10465000F8E73078022803D0012028700020F1E725
:104660007F480078002803DD022028700020E9E759
:104670007E480078002803DD0D2028700020E1E747
:1046800001F0FAF881467468E08A002813DD216998
:10469000081D20610F68E08A401EE082A168206941
:1046A000884201D160682061484601F0E9F80020A5
:1046B00028703846C6E76E48006890F82C0040F035
:1046C00004006B49096881F82C00002068490968DA
:1046D00081F82D0066480068A0F82A803046FEF771
:1046E000E1FF484601F0CCF8FEF795FE01F0C4F872
:1046F00081465F48006890F82D0020B101280DD058
:1047000002280AD105E05A480068076A002028708C
:104710000DE000270E20287009E000BF3146544804
:104720000068FEF771FF00270A20287000BF00BF55
:1047300000204F49096881F82C004D49096881F82B
:104740002D004B490968C861494909680862484613
:1047500001F096F8384675E72DE9F04105460F4619
:1047600014464FF0000814B90020BDE8F0811DB9CF
:10477000042020700020F8E72878022803D00120C8
:1047800020700020F1E701F077F88046A87A20B386
:1047900000267FB1012F0CD107E002230422002163
:1047A0002846FEF746FF701CC6B2A87A0028F4D14E
:1047B00009E000BF0223042200212846FEF739FF4A
:1047C000701CC6B200BF00BF404601F059F8FEF7AA
:1047D00022FE0E2020703046C7E7404601F050F818
:1047E0000020207000BFC0E72DE9F04105460E46CD
:1047F000002715B90420BDE8F0812878022801D0EF
:104800000120F8E701F038F80746A87A60B10023E4
:10481000042231462846FEF70CFF384601F030F8F6
:10482000FEF7F9FD0020E6E76C68E08AA18A88427D
:1048300004DB384601F024F81E20DCE7E168081D9F
:10484000E0600E60E08A401CE082D4E902108842F9
:1048500001D16068E060384601F012F80020CAE734
:10486000410000202C0000206800002042000020B1
:10487000500000202DE9F04105460E46002715B9ED
:104880000420BDE8F0812878022801D00120F8E753
:1048900000F0F2FF0746A87A60B1002304223146F7
:1048A0002846FEF7C6FE384600F0EAFFFEF7B3FDE5
:1048B0000020E6E76C68E08AA18A884204DB38467B
:1048C00000F0DEFF1E20DCE761682069884201D12C
:1048D000A06820612069001F206120690660E08ACD
:1048E000401CE082384600F0CBFF0020C9E72DE9EC
:1048F000F04105460F4616464FF0000815B9042052
:10490000BDE8F0812878022801D00120F8E700F006
:10491000B3FF8046A87AE8B106F0010050B105E087
:104920000023042239462846FEF783FEA87A002891
:10493000F6D105E00023042239462846FEF779FE29
:10494000404600F09DFF06F0040008B9FEF763FD45
:104950000020D5E76C68E08AA18A884204DB4046E3
:1049600000F08EFF1E20CBE706F0020058B1616810
:104970002069884201D1A06820612069001F206160
:104980002069076009E0E168081DE0600F60D4E974
:104990000210884201D16068E060E08A401CE08239
:1049A000404600F06DFF0020AAE72DE9F0470546DC
:1049B0000C464FF0000A15B90420BDE8F0870CB989
:1049C0000920FAE72878022801D00120F5E700F055
:1049D00053FF8246A87A207305F10B0804F10809F9
:1049E000002705E018F8010B09F8010B781CC7B285
:1049F000042FF7DB6E68F08A002803DD3069006859
:104A0000206001E000202060F08AA080B08AE08071
:104A1000504600F035FF0020CFE770B5F0210A487E
:104A2000FEF7B9FB084C04F11806002504E02660E7
:104A300018341836681C85B2092DF8DB0020206078
:104A400001480249086070BD58100020680000202D
:104A500070B5044600260CB9002070BD20780328EC
:104A600001D00020F9E700F007FF06462589002D58
:104A700002DD2089401E2081304600F001FF2846DB
:104A8000EBE770B505460026EF480078002801DD09
:104A9000002070BD00F0F0FE0646EC480468006897
:104AA00020B1EA4800684068E8490860304600F0F4
:104AB000E7FE5CB1032020702581002060603F206C
:104AC000E073002121742046FEF724FE2046E0E733
:104AD0002DE9F0470446884615464FF0000915B900
:104AE0002046BDE8F0871CB9042028702046F8E76E
:104AF0002078032803D0012028702046F1E7D2480F
:104B00000078002803DD0F2028702046E9E700F038
:104B1000B3FE8146A07A08B1012700E00027B8F172
:104B2000000F03D0B8F1010F3ED11BE09FB93F2029
:104B3000E0730021217400202070C4480068606088
:104B400000202081C1480460484600F099FE002002
:104B50002870002605E0484600F092FE49202870A3
:104B6000264628E005E00023012219462046FEF7EC
:104B700060FDA07A0028F6D13F20E0730021217467
:104B800000202070B1480068606000202081AF489C
:104B90000460484600F074FE012F01D1FEF73BFC93
:104BA00000202870002606E0484600F069FE072035
:104BB0002870264600BF00BF304692E72DE9F0413D
:104BC00005460E46144600270CB9BDE8F08115B91C
:104BD00004202070F9E72878032802D001202070F3
:104BE000F3E799480078002802DD02202070ECE706
:104BF00097480078002802DD0D202070E5E700F0DE
:104C00003BFE07462889002808DD2889401E2881A8
:104C1000384600F035FE00202070D6E78D48006849
:104C200090F82C0040F001008A49096881F82C00B6
:104C300000208849096881F82D008648006846856B
:104C40002846FEF72FFD384600F01AFEFEF7E3FB7C
:104C500000F012FE07467F48006890F82D0020B152
:104C6000012809D0022806D102E0002020700BE0C4
:104C70000E20207008E000BF294676480068FEF745
:104C8000C3FC0A20207000BF00BF002071490968E2
:104C900081F82C006F49096881F82D006D49096879
:104CA000C861384600F0ECFD00BF8EE72DE9F04109
:104CB00005460F4614464FF0000814B90020BDE821
:104CC000F0811DB9042020700020F8E7287803281F
:104CD00003D0012020700020F1E700F0CDFD8046D8
:104CE000A87A20B300267FB1012F0CD107E0022360
:104CF000012200212846FEF79CFC701CC6B2A87A4F
:104D00000028F4D109E000BF022301220021284637
:104D1000FEF78FFC701CC6B200BF00BF404600F01B
:104D2000AFFDFEF778FB0E2020703046C7E7404607
:104D300000F0A6FD0020207000BFC0E770B504465B
:104D400000250CB9042070BD2078032801D0012073
:104D5000F9E700F091FD0546A07A60B10023012239
:104D600019462046FEF765FC284600F089FDFEF74F
:104D700052FB0020E7E720894FF6FF71884207D2F7
:104D80002089401C2081284600F07AFD0020DAE7C7
:104D9000284600F075FD3220D5E72DE9F04704469E
:104DA0000D464FF0000914B90420BDE8F0870DB995
:104DB0000920FAE72078032801D00120F5E700F068
:104DC0005BFD8146A07AA87104F10B07AE1C4FF081
:104DD000000807E017F8010B06F8010B08F10100C5
:104DE00000F0FF08B8F1040FF4DB20892880484662
:104DF00000F046FD0020D8E72DE9F04104460E46BC
:104E0000154600270DB9BDE8F08114B904202870BB
:104E1000F9E72078032802D001202870F3E700F09A
:104E20002BFD0746002028702089002801DD2681FF
:104E300005E0A07A08B9268101E0492028703846AB
:104E400000F01EFD00BFDEE7410000202C00002026
:104E500042000020500000202DE9FF5F81460F46F0
:104E600000200090B9F11E0F06DBB9F1FF0F03D04F
:104E70002A2004B0BDE8F09F1E2F01DB2A20F8E7AE
:104E800000F0FAFC0090F94850F8270020B1009893
:104E900000F0F6FC2820ECE7B9F1FF0F03D1F4484D
:104EA000006890F82E90F14850F8294024B90098F5
:104EB00000F0E6FC2920DCE7012C04D1009800F08A
:104EC000DFFC4320D5E74FEAE70807F0070003902F
:104ED000012000FA08F000F0FF0A01210398814048
:104EE00001F0FF0B0020E14941F82900084640F895
:104EF000274014F8306FA07802906078303C019021
:104F0000DC48815D01980140E1B1DA48805D01999A
:104F10008843D84988550846805D28B9D648007826
:104F200002998843D4490870D348007840EA0A00BF
:104F3000D1490870CF4810F8080040EA0B00CD496D
:104F400001F80800E569E5B105F10B00805D019904
:104F5000884305F10B0188550846805D18B9A87A89
:104F600002998843A872A87A40EA0A00A87205F15B
:104F70000B0010F8080040EA0B0005F10B0101F8E6
:104F8000080084F82E7084F83080039884F82F008D
:104F900084F832A084F831B0009800F071FCB74872
:104FA0000078012801D1FEF736FA002061E72DE9EB
:104FB000FE4F06460F4690461C464FF000091E2C39
:104FC00002DD2A20BDE8FE8F00F056FC8146AC4889
:104FD0000078002804DD484600F052FC3C20F1E750
:104FE000A24850F8240060BB0120A04941F82400E9
:104FF000484600F045FC002342463946304600F062
:1050000093FC8246002000900190034602465146E0
:1050100002902046FEF796FB054635B99748007882
:1050200001280CD1FEF7F7F909E000F025FC8146D4
:1050300000208E4941F82400484600F021FC284613
:10504000C0E7484600F01CFC2820BBE702F0010343
:1050500043B102F002032BB102E0491E002308C055
:105060000029FAD170472DE9F04F85B081468A4674
:1050700093461C46DDE90F78129D002003901E2CFC
:1050800003DD2A2005B0BDE8F08F00F0F5FB0390AA
:105090007B480078002804DD039800F0F1FB3C20F9
:1050A000F0E7724850F8240088BB01206F4941F8AE
:1050B0002400039800F0E4FB2A4641463846FFF7F7
:1050C000C5FF2B465A465146484600F02DFC049039
:1050D0001198CDE9008002953A4620460E9B04992E
:1050E000FEF730FB064636B96448007801280CD13B
:1050F000FEF791F909E000F0BFFB039000205B4947
:1051000041F82400039800F0BBFB3046BAE7FFE704
:10511000039800F0B5FB2820B4E72DE9F0410546DF
:10512000002757480078002802DD4020BDE8F081C4
:105130001E2D01D13E20F9E71E2D03DBFF2D01D0EE
:105140002A20F3E700F098FB0746FF2D03D14848DB
:10515000006890F82E50454850F8254024B938464C
:1051600000F08EFB4320E1E7012C04D1384600F02B
:1051700087FB3D20DAE714F8300F3E49085C617880
:10518000884321783B4A505414F830091146085C92
:1051900030B994F83210384800788843364908709E
:1051A000E06918B12046E169FEF72EFA666A16B189
:1051B0003046FEF734FC0020608584F82C0084F82B
:1051C0002D0030480078FF2804D22E480078401C7B
:1051D0002C490870384600F053FBFEF714FA00F033
:1051E0004BFB074627480078002804DD2548007857
:1051F000401E24490870204600F093FB22480078A6
:10520000401E214908700020184941F82500A06976
:1052100030B90020616988611C496069086005E057
:10522000D4E905014861D4E905108861184800688F
:105230006061174804603F2084F84800002149203D
:105240000155384600F01CFB0C480078012801D1BC
:10525000FEF7E1F8002069E72DE9F0410446002758
:105260001E2C17D13E20BDE8F0810000400A00202E
:105270005000002046000020450000204A00002089
:1052800041000020420000204B0000205C00002074
:10529000540000201E2C03DBFF2C01D02A20E2E763
:1052A000FF2C0BD100F0E8FA0746F148006890F8AF
:1052B0003360384600F0E4FA3046D4E700F0DCFA18
:1052C0000746EC4850F8245025B9384600F0D8FA83
:1052D0004320C8E7012D04D1384600F0D1FA3D2023
:1052E000C1E73F2085F83300384600F0C9FA0020B6
:1052F000B9E72DE9F04705460F4614464FF0000880
:1053000014B90020BDE8F0871E2D05DDFF2D03D068
:105310002A2020700020F5E71FB90C202070002003
:10532000F0E7D5480078002803DD11202070002028
:10533000E8E700F0A1FA8046FF2D03D1CC480068D1
:1053400090F82E50CB4850F8256036B9404600F012
:1053500097FA432020700020D4E7012E06D1404662
:1053600000F08EFA432020700020CBE706F14801C0
:105370003846FDF7E5FD8146404600F081FA002001
:1053800020704846BEE72DE9F04705460F46144613
:105390004FF000090CB9BDE8F0871E2D04DDFF2D8C
:1053A00002D02A202070F6E717B90C202070F2E70F
:1053B000B1480078002802DD12202070EBE700F0F1
:1053C0005BFA8146FF2D03D1A948006890F82E5062
:1053D000A84850F825602EB9484600F051FA4320FD
:1053E0002070D8E7012E05D1484600F049FA432045
:1053F0002070D0E73846FDF7F0FD8046B8F1010F88
:1054000005DD484600F03CFA41202070C3E73946EC
:1054100006F14800FDF794FD484600F031FA0020FF
:10542000207000BFB7E770B5054600261E2D01DBD2
:105430002A2070BD00F020FA06468E4850F825401C
:1054400024B9304600F01CFA4620F2E7012C04D1C2
:10545000304600F015FA4320EBE794F82C0000F0FA
:10546000080060B314F82C0F20F00800207014F826
:105470002C09F8B9608DC8B93034A0787F49097813
:1054800008437E49087020787D49085C61780843AC
:1054900014F830197A4A5054304600F0F1F979483E
:1054A0000078012809D1FDF7B6FF06E0304600F08C
:1054B000E7F902E0304600F0E3F90020B9E73046B2
:1054C00000F0DEF94420B4E72DE9F04706460C462B
:1054D0004FF0000A1E2E04DDFF2E02D02A20BDE868
:1054E000F0870CB90920FAE700202060606000F026
:1054F000C3F98246FF2E03D15D48006890F82E6004
:105500005C4850F8265025B9504600F0B9F94320C0
:10551000E5E7012D04D1504600F0B2F94320DEE763
:10552000287C00F0010020B9504600F0A9F9452080
:10553000D5E70027D5F80C90D5F80880504600F044
:105540009FF900E07F1C58F8041B0029FAD0B8002E
:105550002060A9EB0700800060600020BFE72DE914
:10556000F04105464FF000081E2D02D14720BDE84E
:10557000F0811E2D03DBFF2D01D02A20F7E700F07C
:105580007BF98046FF2D05D13948006890F82E50F0
:10559000012608E03648006890F82E00A84201D1A4
:1055A000012600E00026334850F8254024B9404643
:1055B00000F066F94820DAE7012C04D1404600F0FB
:1055C0005FF94320D3E794F830702D48C05D94F81C
:1055D000311088432A49C8550846C05D30B994F84F
:1055E00032102648007888432449087094F82C002B
:1055F00040F0080084F82C00404600F041F9012EEC
:1056000001D1FDF708FF0020B1E72DE9F041044684
:105610000E4600271E2C04DDFF2C02D02A20BDE8F8
:10562000F0810EB90920FAE700F026F90746FF2CB1
:1056300003D10F48006890F82E400E4850F82450CF
:1056400025B9384600F01CF92920E8E7012D04D1DE
:10565000384600F015F94320E1E74C222946304650
:10566000FEF766F8384600F00BF90020D7E7000097
:1056700050000020400A002041000020450000208A
:10568000460000204A00002070B5054600267448F8
:105690000078002800DD70BD002D23DD00F0ECF85F
:1056A00006467048006890F830406F48005D6D49CC
:1056B000096891F8311088436B4908550846005D28
:1056C00040B96848006890F832106848007888430C
:1056D00066490870634800684585304600F0D0F898
:1056E000FDF799FE00BFD6E72DE9F04780460D464D
:1056F00016461C465A480078002802DD5520BDE8B1
:10570000F087B8F1000F04D11DB916B90CB95420B7
:10571000F5E73B2D01DD5120F1E73B2E01DD522065
:10572000EDE7B4F57A7F01DB5320E8E74FF47A70B8
:1057300060434FF47A71B0FBF1F14FF4616008FB04
:1057400000F0C5EB051200EB8200304400EB400294
:10575000C2EBC01001EBC0074FEA1749BFB2384691
:10576000FFF792FF0BE04FF40040FFF78DFF4FF47F
:105770000040FFF789FFA9F101001FFA80F9B9F194
:10578000000FF0DC0020BAE770B5054600261E2D9C
:1057900001DB2A2070BD00F06FF80646344850F84F
:1057A000254024B9304600F06BF84320F2E7012C85
:1057B00004D1304600F064F84320EBE7608D20B957
:1057C000304600F05DF85020E4E70020608594F852
:1057D0002C0000F0370040B114F82C0F20F03700F7
:1057E0002070012060702C3C02E0002084F82D0025
:1057F00094F82C0000F00800A8B93034A0781B49B8
:10580000097808431949087020781749085C6178BD
:10581000084314F83019144A5054304600F030F858
:10582000FDF7F9FD02E0304600F02AF80020B1E76C
:1058300070B5002500F020F805460E48046828469B
:1058400000F01EF8204670BD70B50446002500F03B
:1058500013F8054607480460284600F011F870BDAB
:10586000410000205000002046000020450000209C
:10587000400A00206C000020EFF3108072B67047E1
:1058800080F3108870471D484FF0FF010170002021
:1058900080F309881A48012101701A484FF080519D
:1058A000016062B6FEE717484FF080510160704713
:1058B00014484FF080510160704772B6EFF30980D1
:1058C00028B1203880E8F00F0F490968086000B55A
:1058D0000E4880475DF804EB0D480E490A780270C7
:1058E00009480D490A680260106890E8F00F2030FE
:1058F00080F309884EF0040E62B6704722ED00E096
:105900004A00002004ED00E050000020C3590108C7
:1059100043000020440000205800002070477047DA
:10592000704770477047704770B5044610464FF097
:1059300080750560051F28462C606FF00106051F65
:1059400028462E604FF01236051F28462E604FF075
:105950000336051F28462E604FF00236051F2846E5
:105960002E607610051F28462E60051F28462960E8
:105970004FF01136051F28462E604FF01036051FD8
:1059800028462E604FF00936051F28462E604FF03E
:105990000836051F28462E604FF00736051F28469B
:1059A0002E604FF00636051F28462E604FF0053654
:1059B000051F28462E604FF00436051F28462E602E
:1059C00070BD70477047704708B54FF42A40ADF876
:1059D000000003208DF8020004208DF803006946C2
:1059E000FB48FAF75BFF4FF40870ADF800000320A6
:1059F0008DF8020004208DF803006946F548FAF797
:105A00004DFF4FF41040ADF8000003208DF8020068
:105A100004208DF803006946EF48FAF73FFF08BD00
:105A200008B54FF42A40ADF8000003208DF80200BD
:105A300010208DF803006946E548FAF72FFF4FF470
:105A40000870ADF8000003208DF8020010208DF8DA
:105A500003006946DF48FAF721FF4FF41040ADF824
:105A6000000003208DF8020010208DF80300694625
:105A7000D948FAF713FF08BD10B50024FFF7A4FFBB
:105A80004FF48041D348FAF7B8FF0121D148FAF723
:105A9000B2FF8021CE48FAF7AEFF00BF4FF40041BD
:105AA000CD48FAF78EFF28B12046641C42F21071EF
:105AB0008842F3D38021C648FAF79FFFFFF7B0FF73
:105AC00010BD10B50446FFF7D7FF4FF48041C14821
:105AD000FAF793FF0121BF48FAF78FFF8021BC48F6
